 prt_fxlog P72_VIGILANTE_FLEX20170517I.fix | grep -v 35=0
8=FIX.4.2|9=0073|35=A|34=1|49=VIGILANTE_FLEX|56=P72_FLEX|52=20170517-12:00:35|98=0|108=50|10=012|
8=FIX.4.2|9=0101|35=4|34=77|49=VIGILANTE_FLEX|56=P72_FLEX|43=Y|52=20170517-13:03:15|122=20170517-13:03:15|36=79|123=Y|10=149|
[svcflexsys_dev@deveslx01 P72-DEV [Root=44% Home=44%] 20170517]$ prt_fxlog P72_VIGILANTE_FLEX20170517O.fix | grep -v 35=0
8=FIX.4.2|9=82|35=A|34=1|49=P72_FLEX|52=20170517-12:00:34|56=VIGILANTE_FLEX|57=ADMIN|98=0|108=50|10=190|
8=FIX.4.2|9=92|35=1|34=2|49=P72_FLEX|52=20170517-12:00:35|56=VIGILANTE_FLEX|57=ADMIN|112=1495022435.671917|10=216|
8=FIX.4.2|9=195|35=D|34=58|49=P72_FLEX|50=RAD|52=20170517-12:46:43|56=VIGILANTE_FLEX|115=ASSOCIATES|11=AAA0019-20170517|15=USD|21=1|38=1000.00|40=2|44=34.22000000|47=A|54=1|55=CSCO|109=COHE|60=20170517-12:46:43|10=195|
8=FIX.4.2|9=95|35=5|34=78|49=P72_FLEX|52=20170517-13:02:49|56=VIGILANTE_FLEX|57=ADMIN|58=Closing Connection!!|10=206|
8=FIX.4.2|9=83|35=A|34=79|49=P72_FLEX|52=20170517-13:03:10|56=VIGILANTE_FLEX|57=ADMIN|98=0|108=50|10=252|
8=FIX.4.2|9=81|35=2|34=80|49=P72_FLEX|52=20170517-13:03:14|56=VIGILANTE_FLEX|57=ADMIN|7=77|16=0|10=132|
8=FIX.4.2|9=178|35=D|34=118|49=P72_FLEX|50=VJ|52=20170517-13:34:54|56=VIGILANTE_FLEX|115=ASSOCIATES|11=AAA0025-20170517|15=USD|21=1|38=100.00|40=1|47=A|54=1|55=IBM|109=COHE|60=20170517-13:34:54|10=119|

